:100000000C942A000C9447000C9447000C94470071
:100010000C9447000C9447000C9447000C94470044
:100020000C9447000C9447000C9447000C94470034
:100030000C9449000C9447000C9447000C94470022
:100040000C9447000C9447000C9447000C94470014
:100050000C94470011241FBECFE5D8E0DEBFCDBF12
:1000600010E0A0E6B0E0E2E7F9E002C005900D92F2
:10007000AA37B107D9F710E0AAE7B0E001C01D9296
:10008000AC37B107E1F70E948A040C94B7040C94D2
:1000900000001F920F920FB60F9211248F93AF930F
:1000A000BF93EF93FF93DF93CF93CDB7DEB710925B
:1000B0006000ADE2B0E0EDE2F0E080818F778C93FC
:1000C000CF91DF91FF91EF91BF91AF918F910F9001
:1000D0000FBE0F901F901895DF93CF9300D00F9213
:1000E000CDB7DEB79B838A831982EA81FB81868143
:1000F000813009F04DC1EA81FB818281813009F0B4
:10010000A9C0ADE2B0E0EDE2F0E0808180618C93C7
:10011000EA81FB818081843008F082C0ADE2B0E0EA
:10012000EDE2F0E08081982F9C7FEA81FB81808165
:10013000892B8C93EA81FB818181813041F4AEE28D
:10014000B0E0EEE2F0E0808181608C9307C0AEE227
:10015000B0E0EEE2F0E080818E7F8C93EA81FB815B
:100160008781813041F4ADE2B0E0EDE2F0E08081E2
:1001700080628C9307C0ADE2B0E0EDE2F0E08081F8
:100180008F7D8C93EA81FB818381813069F4AFE5B7
:10019000B0E0EFE5F0E0808180688C93EA81FB813C
:1001A000838180937A0013C0AFE5B0E0EFE5F0E023
:1001B00080818F778C93ADE2B0E0EDE2F0E080815A
:1001C0008F778C93EA81FB81838180937A00EA8127
:1001D000FB818481813041F4ADE2B0E0EDE2F0E0FA
:1001E000808188608C9307C0ADE2B0E0EDE2F0E082
:1001F0008081877F8C93EA81FB818581813041F406
:10020000ADE2B0E0EDE2F0E0808184608C930AC062
:10021000ADE2B0E0EDE2F0E080818B7F8C9302C034
:1002200081E089838CE061E00E94C7028DE061E09B
:100230000E94C7028EE060E00E94C7028FE061E08A
:100240000E94C702ADE2B0E0EDE2F0E080818064A0
:100250008C93A7C0EA81FB818281882309F095C035
:10026000ADE2B0E0EDE2F0E080818F7E8C93AEE213
:10027000B0E0EEE2F0E080818E7F8C93ADE2B0E002
:10028000EDE2F0E080818E7F8C93ADE2B0E0EDE2B4
:10029000F0E080818D7F8C93EA81FB8187818130C2
:1002A00041F4ADE2B0E0EDE2F0E0808180628C9359
:1002B00007C0ADE2B0E0EDE2F0E080818F7D8C938D
:1002C000EA81FB818381813069F4AFE5B0E0EFE53D
:1002D000F0E0808180688C93EA81FB818381809348
:1002E0007A0013C0AFE5B0E0EFE5F0E080818F77F2
:1002F0008C93ADE2B0E0EDE2F0E080818F778C93FB
:10030000EA81FB81838180937A00EA81FB81848189
:10031000813041F4ADE2B0E0EDE2F0E08081886050
:100320008C9307C0ADE2B0E0EDE2F0E08081877F22
:100330008C93EA81FB818581813041F4ADE2B0E0AC
:10034000EDE2F0E0808184608C9307C0ADE2B0E024
:10035000EDE2F0E080818B7F8C938CE060E00E9486
:10036000C7028DE060E00E94C7028EE061E00E945B
:10037000C7028FE060E00E94C702ADE2B0E0EDE2AC
:10038000F0E0808180648C930CC081E0898309C097
:1003900081E08983ADE2B0E0EDE2F0E080818F7B27
:1003A0008C9389810F900F900F90CF91DF910895DA
:1003B000DF93CF9300D0CDB7DEB78A8319828091C7
:1003C0007A00882351F4EFE2F0E08A818083EEE244
:1003D000F0E080818823DCF718C080917A008130BA
:1003E00091F480916000813031F4EFE2F0E08A8195
:1003F000808310926000ADE2B0E0EDE2F0E0808139
:1004000080688C9302C081E0898389810F900F906E
:10041000CF91DF910895DF93CF9300D00F92CDB7A6
:10042000DEB79B838A83198280917A00882361F4E6
:10043000EEE2F0E080818823DCF7EFE2F0E08081FB
:10044000EA81FB8180830EC080917A00813041F483
:10045000ADE2B0E0EDE2F0E0808180688C9302C014
:1004600081E0898389810F900F900F90CF91DF9168
:100470000895DF93CF9300D000D0CDB7DEB79C8333
:100480008B831A8219820FC08981282F30E08B81DB
:100490009C81FC01E20FF31F80810E94D8018A83B6
:1004A00089818F5F89838981282F30E08B819C81AE
:1004B000FC01E20FF31F8081882331F78A810F90BE
:1004C0000F900F900F90CF91DF910895DF93CF930E
:1004D00000D000D0CDB7DEB79C838B831A821982FF
:1004E0008981282F30E08B819C81820F931F0E948D
:1004F0000B028A830DC089818F5F89838981282FB0
:1005000030E08B819C81820F931F0E940B028A83B3
:100510008981282F30E08B819C81FC01E20FF31F41
:100520008081833241F78981282F30E08B819C8143
:10053000FC01E20FF31F10828A810F900F900F9041
:100540000F90CF91DF910895DF93CF9300D00F925A
:10055000CDB7DEB789836A838981843078F4898155
:10056000882F90E0880F991FFC01E759FF4F0190F9
:10057000F081E02D8A8180831B8202C081E08B8321
:100580008B810F900F900F90CF91DF910895DF93A3
:10059000CF9300D000D00F92CDB7DEB78B836C83A2
:1005A0008B81803208F05EC08B818695869586951A
:1005B0008A838B81877089838C81813031F58A8130
:1005C000882F90E0880F991FFC01E759FF4FA08109
:1005D000B1818A81882F90E0880F991FFC01E7592B
:1005E000FF4F0190F081E02D8081482F8981282FD5
:1005F00030E081E090E0022E02C0880F991F0A943B
:10060000E2F7842B8C931D822FC08C81882339F5CF
:100610008A81882F90E0880F991FFC01E759FF4FCE
:10062000A081B1818A81882F90E0880F991FFC01F9
:10063000E759FF4F0190F081E02D8081482F89819B
:10064000282F30E081E090E0022E02C0880F991F31
:100650000A94E2F7809584238C931D8205C081E083
:100660008D8302C081E08D838D810F900F900F905C
:100670000F900F90CF91DF910895DF93CF9300D02B
:1006800000D0CDB7DEB789837B836A8389818430CC
:1006900088F48981882F90E0880F991FFC01EF581A
:1006A000FF4F0190F081E02D8081EA81FB81808302
:1006B0001C8202C081E08C838C810F900F900F9080
:1006C0000F90CF91DF910895DF93CF9300D000D0AA
:1006D00000D0CDB7DEB78B837D836C838B81803276
:1006E00090F58B818695869586958A838B81877018
:1006F00089838A81882F90E0880F991FFC01EF5829
:10070000FF4F0190F081E02D8081482F50E08981DA
:10071000282F30E081E090E002C0880F991F2A95D1
:10072000E2F79A01282339238981882F90E0A901D3
:1007300002C0559547958A95E2F7CA01EC81FD8183
:1007400080831E8202C051E05E838E8126960FB6A2
:10075000F894DEBF0FBECDBFCF91DF910895DF9338
:10076000CF9300D00F92CDB7DEB789836A8389819A
:10077000843078F48981882F90E0880F991FFC01DC
:10078000EF59FF4F0190F081E02D8A8180831B8219
:1007900002C081E08B838B810F900F900F90CF91DF
:1007A000DF910895DF93CF9300D000D00F92CDB7A3
:1007B000DEB78B836C838B81803208F05EC08B81C7
:1007C0008695869586958A838B81877089838C81AF
:1007D000813031F58A81882F90E0880F991FFC01C4
:1007E000EF59FF4FA081B1818A81882F90E0880F57
:1007F000991FFC01EF59FF4F0190F081E02D80819E
:10080000482F8981282F30E081E090E0022E02C03D
:10081000880F991F0A94E2F7842B8C931D822FC0B6
:100820008C81882339F58A81882F90E0880F991F61
:10083000FC01EF59FF4FA081B1818A81882F90E0A0
:10084000880F991FFC01EF59FF4F0190F081E02DB7
:100850008081482F8981282F30E081E090E0022EAE
:1008600002C0880F991F0A94E2F7809584238C9325
:100870001D8205C081E08D8302C081E08D838D8162
:100880000F900F900F900F900F90CF91DF910895E0
:10089000DF93CF9300D000D0CDB7DEB78B838B81B1
:1008A000803270F58B818695869586958A838B81BB
:1008B000877089838A81882F90E0880F991FFC01B7
:1008C000EF59FF4FA081B1818A81882F90E0880F76
:1008D000991FFC01EF59FF4F0190F081E02D8081BD
:1008E000482F8981282F30E081E090E0022E02C05D
:1008F000880F991F0A94E2F7842B8C931C8202C004
:1009000081E08C838C810F900F900F900F90CF918E
:10091000DF910895DF93CF93CDB7DEB728970FB659
:10092000F894DEBF0FBECDBF18861C821E821D82CA
:10093000198281E08F8381E08B831A82CE01019638
:100940000E946C0080E060E00E94C702E9E3F0E0F2
:100950008081882F90E081709070882321F081E061
:100960000E94D801F3CF80E00E94D801EFCFF89425
:02097000FFCFB7
:10097200013B003800350032003A003700340031C4
:0A0982000039003600330030000099
:00000001FF
