S00D0000552D4152542E73726563AE
S11300000C942A000C943C000C943C000C943C008E
S11300100C943C000C943C000C943C000C943C006C
S11300200C943C000C943C000C943C000C943C005C
S11300300C943C000C94EA010C94B4010C943C0024
S11300400C943C000C943C000C943C000C943C003C
S11300500C943C0011241FBECFE5D8E0DEBFCDBF19
S113006020E0A0E6B0E001C01D92A236B207E1F79D
S11300700E9490010C94BE020C940000803208F09F
S11300809EC0613009F04BC0883078F44BB3877060
S113009021E030E0B90102C0660F771F8A95E2F7CC
S11300A0CB01842B8BBB80E0089598EF980F983098
S11300B078F448B3877021E030E0B90102C0660FDC
S11300C0771F8A95E2F7CB01842B88BB80E00895E3
S11300D090EF980F983078F445B3877021E030E0C2
S11300E0B90102C0660F771F8A95E2F7CB01842B12
S11300F085BB80E0089598EE980F983008F061C0B1
S113010042B3877021E030E0B90102C0660F771F67
S11301108A95E2F7CB01842B82BB80E008956111BC
S113012052C0883080F44BB3877021E030E0B901CD
S113013002C0660F771F8A95E2F7CB01809584236E
S11301408BBB80E0089598EF980F983080F448B303
S1130150877021E030E0B90102C0660F771F8A95ED
S1130160E2F7CB018095842388BB80E0089590EF6B
S1130170980F983080F445B3877021E030E0B901DE
S113018002C0660F771F8A95E2F7CB01809584231E
S113019085BB80E0089598EE980F9830B0F442B390
S11301A0877021E030E0B90102C0660F771F8A959D
S11301B0E2F7CB018095842382BB80E0089581E03F
S11301C0089580E0089581E0089580E008958032E4
S11301D008F09EC0613009F04BC0883078F44AB30F
S11301E0877021E030E0B90102C0660F771F8A955D
S11301F0E2F7CB01842B8ABB80E0089598EF980F37
S1130200983078F447B3877021E030E0B90102C038
S1130210660F771F8A95E2F7CB01842B87BB80E0BA
S1130220089590EF980F983078F444B3877021E0E4
S113023030E0B90102C0660F771F8A95E2F7CB015F
S1130240842B84BB80E0089598EE980F983008F0D2
S113025061C041B3877021E030E0B90102C0660F8C
S1130260771F8A95E2F7CB01842B81BB80E0089548
S1130270611152C0883080F44AB3877021E030E0C5
S1130280B90102C0660F771F8A95E2F7CB0180950A
S113029084238ABB80E0089598EF980F983080F407
S11302A047B3877021E030E0B90102C0660F771FC1
S11302B08A95E2F7CB018095842387BB80E008957B
S11302C090EF980F983080F444B3877021E030E0C9
S11302D0B90102C0660F771F8A95E2F7CB018095BA
S11302E0842384BB80E0089598EE980F9830B0F48E
S11302F041B3877021E030E0B90102C0660F771F77
S11303008A95E2F7CB018095842381BB80E0089530
S113031081E0089580E0089581E0089580E00895E3
S1130320CF93DF93CDB7DEB72A970FB6F894DEBF2D
S11303300FBECDBF80E895E29B838A8388E08D83DE
S1130340198618861E8219821F8281E08C83CE0151
S113035001960E941702CE010A960E94B70285E513
S113036090E00E94B002F7CF1F920F920FB60F9247
S113037011242F933F934F935F936F937F938F93A6
S11303809F93AF93BF93EF93FF93809161008CB9D8
S113039061E084E00E94E70061E084E00E943E00A6
S11303A061E082E00E94E70061E082E00E943E009A
S11303B05598FF91EF91BF91AF919F918F917F914C
S11303C06F915F914F913F912F910F900FBE0F90BE
S11303D01F9018951F920F920FB60F9211242F930E
S11303E03F934F935F936F937F938F939F93AF93B9
S11303F0BF93EF93FF9361E08AE00E94E70061E01E
S11304008AE00E943E008CB180936000FF91EF91DE
S1130410BF91AF919F918F917F916F915F914F9118
S11304203F912F910F900FBE0F901F901895FC01D4
S1130430549A539A80B58F7780BD8081882319F0B0
S1130440813039F00CC0599810BC83E389B980E03D
S113045007C0599A10BC87E689B980E001C081E0E1
S113046090B5906890BD9381992319F0913029F04B
S113047008C090B5906490BD05C090B59F7B90BDB9
S113048001C081E094819730D9F028F4953041F08F
S1130490963071F02DC09830D9F0993009F128C008
S11304A090B59D7F90BD90B59B7F90BD529821C023
S11304B090B5926090BD90B59B7F90BD529819C045
S11304C090B59D7F90BD90B5946090BD529811C039
S11304D090B5926090BD90B5946090BD529809C05B
S11304E090B5926090BD90B5946090BD529A01C051
S11304F081E09581913059F018F0923079F015C06F
S113050090B59F7D90BD90B59F7E90BD0FC090B576
S1130510906290BD90B59F7E90BD08C090B59062EA
S113052090BD90B5906190BD01C081E09681992302
S113053019F0913029F008C090B5986090BD05C0BD
S113054090B5977F90BD01C081E09781992321F0F8
S1130550913029F081E008959FB790689FBF089576
S11305605D9BFECF80936100559A80E00895579A71
S113057020916000FC01208380E00895F894FFCF6F
S9030000FC
