:100000000C942A000C94E00B0C9447000C94F50B14
:100010000C9447000C9447000C9447000C94470044
:100020000C9447000C9447000C9447000C94470034
:100030000C94A3050C9419080C94F3070C94470036
:100040000C9447000C9447000C9447000C94470014
:100050000C94470011241FBECFE5D8E0DEBFCDBF12
:1000600010E0A0E6B0E0ECEDFAE102C005900D92E0
:10007000A038B107D9F710E0A0E8B0E001C01D92A8
:10008000A838B107E1F70E940A0C0C946C0D0C948F
:100090000000EF92FF920F931F937B018C0120E0F1
:1000A00030E040E05FE40E94490388238CF0C801FF
:1000B000B70120E030E040E05FE40E94C1010E940F
:1000C000A9039B01AC01205030404040504806C07D
:1000D000C801B7010E94A9039B01AC01B901CA0183
:1000E0001F910F91FF90EF900895A0E0B0E0EBE733
:1000F000F0E00C94350DDC012B01FA019C9192305B
:1001000008F439C1EB018881823008F433C194309E
:1001100069F4843009F02FC111969C91119789815F
:10012000981709F428C1A0E6B0E025C1843009F48D
:1001300021C18230A9F4923009F01DC19A01AD01AC
:1001400088E0EA010990AE01E90109929E0181501F
:10015000C1F7E201898111969C918923818308C1AD
:10016000923009F407C112962D903C901397EB0141
:100170008A819B811496AD90BD90CD90DC901797AD
:10018000EC80FD800E811F819101281B390BB90184
:1001900037FF04C066277727621B730B6032710537
:1001A0000CF061C0121613066CF537014801062EDB
:1001B00004C096948794779467940A94D2F721E0C8
:1001C00030E040E050E004C0220F331F441F551FB1
:1001D0006A95D2F721503040404050402E213F21B7
:1001E00040235123211531054105510521F021E01E
:1001F00030E040E050E079018A01E628F72808293C
:1002000019293CC0232BD1F1260E371E350146019A
:10021000062E04C096948794779467940A94D2F734
:1002200021E030E040E050E004C0220F331F441FC3
:10023000551F6A95D2F721503040404050402A2146
:100240003B214C215D21211531054105510521F04E
:1002500021E030E040E050E059016A01A628B728CB
:10026000C828D9280BC0821593052CF01C01AA249C
:10027000BB24650103C0EE24FF24870111969C91E5
:10028000D20111968C91981709F445C0992339F041
:10029000A80197012A193B094C095D0906C0A6016E
:1002A00095012E193F09400B510B57FD08C01182D3
:1002B0003382228224833583468357831DC081E0A5
:1002C00081833382228288279927DC01821B930B4A
:1002D000A40BB50B84839583A683B7830DC0220F2F
:1002E000331F441F551F24833583468357838281E0
:1002F000938101979383828324813581468157813D
:10030000DA01C9010197A109B1098F5F9F4FAF4F72
:10031000BF4328F30BC0918333822282EA0CFB1C7B
:100320000C1D1D1DE482F5820683178383E0808304
:10033000248135814681578157FF1AC0C901AA27F8
:1003400097FDA095BA2F81709070A070B0705695EF
:10035000479537952795822B932BA42BB52B848318
:100360009583A683B7838281938101969383828349
:10037000DF0101C0D201CD01CDB7DEB7E2E10C94BF
:10038000510DA0E2B0E0E7ECF1E00C94410D69837F
:100390007A838B839C832D833E834F835887E9E048
:1003A000EE2EF12CEC0EFD1ECE010196B7010E943F
:1003B000D2048E010F5E1F4FCE010596B8010E9438
:1003C000D2048A8991E089278A8BC701B801AE01DE
:1003D000475E5F4F0E9475000E94FD03A096E6E015
:1003E0000C945D0DA0E2B0E0E8EFF1E00C94410D5B
:1003F00069837A838B839C832D833E834F835887C5
:10040000F9E0EF2EF12CEC0EFD1ECE010196B701A6
:100410000E94D2048E010F5E1F4FCE010596B801D7
:100420000E94D204C701B801AE01475E5F4F0E942F
:1004300075000E94FD03A096E6E00C945D0DA0E21D
:10044000B0E0E5E2F2E00C94350D69837A838B83AA
:100450009C832D833E834F835887CE010196BE0136
:10046000675F7F4F0E94D204CE010596BE016F5E8A
:100470007F4F0E94D2049985923088F0898982301A
:10048000C8F0943019F4823051F404C0843029F457
:10049000923081F480E690E0C6C0923049F420E0CA
:1004A0009A858A89981321E02A87CE010996BBC0D4
:1004B000823049F420E09A858A89981321E02A8BBA
:1004C000CE014196B0C02D843E844F8458886D88FB
:1004D0007E888F88988CEE24FF248701AA24BB2471
:1004E000650140E050E060E070E0E0E0F0E0C10174
:1004F00081709070892BE9F0E60CF71C081D191D1E
:100500009A01AB012A0D3B1D4C1D5D1D80E090E062
:10051000A0E0B0E0E614F7040805190520F481E036
:1005200090E0A0E0B0E0BA01A901480F591F6A1F8E
:100530007B1FAA0CBB1CCC1CDD1C97FE08C081E0F5
:1005400090E0A0E0B0E0A82AB92ACA2ADB2A3196B6
:10055000E032F10549F0660C771C881C991C569412
:10056000479437942794C3CFFA85EA892B893C892D
:100570008B859C85280F391F2E5F3F4F17C0CA01FE
:1005800081709070892B61F016950795F794E79428
:1005900080E090E0A0E0B0E8E82AF92A0A2B1B2BC3
:1005A00076956795579547952F5F3F4F77FDE7CF36
:1005B0000CC0440F551F661F771F17FD4160EE0CDE
:1005C000FF1C001F111F21503040403090E05907A0
:1005D00090E0690790E4790760F32B8F3C8FDB0193
:1005E000CA018F779070A070B07080349105A1051A
:1005F000B10561F447FD0AC0E114F10401051105DC
:1006000029F0405C5F4F6F4F7F4F40781A8EFE1786
:1006100011F081E08A8F4D8F5E8F6F8F78A383E01A
:10062000898FCE0149960E94FD03A096E2E10C94C9
:10063000510DA8E1B0E0EFE1F3E00C94410D6983C6
:100640007A838B839C832D833E834F83588789E0F5
:10065000E82EF12CEC0EFD1ECE010196B7010E9492
:10066000D2048E010F5E1F4FCE010596B8010E9485
:10067000D2048985823040F08989823028F0C70110
:10068000B8010E944A0501C08FEF6896E6E00C941D
:100690005D0DA8E1B0E0EFE4F3E00C94410D698357
:1006A0007A838B839C832D833E834F83588789E095
:1006B000E82EF12CEC0EFD1ECE010196B7010E9432
:1006C000D2048E010F5E1F4FCE010596B8010E9425
:1006D000D2048985823040F08989823028F0C701B0
:1006E000B8010E944A0501C08FEF6896E6E00C94BD
:1006F0005D0DA8E1B0E0EFE7F3E00C94410D6983F4
:100700007A838B839C832D833E834F83588789E034
:10071000E82EF12CEC0EFD1ECE010196B7010E94D1
:10072000D2048E010F5E1F4FCE010596B8010E94C4
:10073000D2048985823040F08989823028F0C7014F
:10074000B8010E944A0501C081E06896E6E00C9479
:100750005D0DACE0B0E0EFEAF3E00C94450D698389
:100760007A838B839C83CE010196BE016B5F7F4FA2
:100770000E94D2048D81823061F1823050F1843048
:1007800021F48E81882351F12EC02F81388537FDC9
:1007900020C06E812F3131051CF06623F9F023C093
:1007A0008EE190E0821B930B29853A854B855C8511
:1007B00004C056954795379527958A95D2F76623B5
:1007C000B1F050954095309521953F4F4F4F5F4F79
:1007D0000EC020E030E040E050E009C02FEF3FEFD6
:1007E0004FEF5FE704C020E030E040E050E8B9019F
:1007F000CA012C96E2E00C94610DDF92EF92FF9219
:100800000F931F93FC01E480F58006811781D1804E
:100810008081823048F480E090E0A0E1B0E0E82AF6
:10082000F92A0A2B1B2BA5C0843009F49FC0823003
:1008300021F4EE24FF24870105C0E114F104010531
:10084000110519F4E0E0F0E096C0628173819FEF3A
:10085000623879070CF05BC022E83FEF261B370BAC
:100860002A3131052CF020E030E040E050E02AC091
:10087000B801A701022E04C0769567955795479554
:100880000A94D2F781E090E0A0E0B0E004C0880FC5
:10089000991FAA1FBB1F2A95D2F70197A109B10979
:1008A0008E219F21A023B1230097A105B10521F03E
:1008B00081E090E0A0E0B0E09A01AB01282B392B59
:1008C0004A2B5B2BDA01C9018F779070A070B07052
:1008D00080349105A105B10539F427FF09C0205CDA
:1008E0003F4F4F4F5F4F04C0215C3F4F4F4F5F4F13
:1008F000E0E0F0E02030A0E03A07A0E04A07A0E402
:100900005A0710F0E1E0F0E079018A0127C0603871
:10091000710564F5FB01E158FF4FD801C7018F77DE
:100920009070A070B07080349105A105B10539F4C4
:10093000E7FE0DC080E490E0A0E0B0E004C08FE3EB
:1009400090E0A0E0B0E0E80EF91E0A1F1B1F17FFA1
:1009500005C016950795F794E794319687E01695AC
:100960000795F794E7948A95D1F705C0EE24FF2404
:100970008701EFEFF0E06E2F679566276795902F60
:100980009F77D794DD24D7948E2F8695492F462BB9
:10099000582F5D29B701CA011F910F91FF90EF9069
:1009A000DF900895FC01DB01408151812281622F9B
:1009B0006F7770E0221F2227221F9381892F880FD3
:1009C000822B282F30E0991F9927991F11969C930D
:1009D000119721153105A9F54115510561057105DD
:1009E00011F482E037C082E89FEF13969C938E93B8
:1009F00012979A01AB0167E0220F331F441F551F66
:100A00006A95D1F783E08C930DC0220F331F441FEA
:100A1000551F12968D919C911397019713969C9355
:100A20008E931297203080E0380780E0480780E4FA
:100A3000580758F314962D933D934D935C93179755
:100A400008952F3F310579F4411551056105710570
:100A500019F484E08C93089564FF03C081E08C93C3
:100A600012C01C9210C02F57304013963C932E9307
:100A7000129783E08C9387E0440F551F661F771F02
:100A80008A95D1F7706414964D935D936D937C9322
:100A9000179708951F93DC01FB019C91923008F495
:100AA00047C08081823008F443C0943051F41196DD
:100AB0001C91843099F58181682F70E0611B710968
:100AC0003FC0843021F0923031F48230B9F181811D
:100AD000882389F12DC011961C9111978230F1F075
:100AE00081811817D9F412962D913C911397828128
:100AF00093818217930794F028173907BCF0149656
:100B00008D919D910D90BC91A02D248135814681C0
:100B10005781281739074A075B0718F4112341F05A
:100B20000AC082179307A407B50740F4112319F0F0
:100B300061E070E005C06FEF7FEF02C060E070E041
:100B4000CB011F9108951F920F920FB60F9211249F
:100B50008F93AF93BF93EF93FF93DF93CF93CDB773
:100B6000DEB7EFE2F0E0809181008083ADE2B0E09B
:100B7000EDE2F0E080818F778C93CF91DF91FF9150
:100B8000EF91BF91AF918F910F900FBE0F901F907B
:100B90001895DF93CF9300D00F92CDB7DEB79B832C
:100BA0008A831982EA81FB818681813009F03FC105
:100BB000EA81FB818281813009F0A2C08CE061E092
:100BC0000E941D0A8DE061E00E941D0A8EE060E037
:100BD0000E941D0A8FE061E00E941D0AADE2B0E0B4
:100BE000EDE2F0E0808180618C93EA81FB8180817D
:100BF000843008F082C0ADE2B0E0EDE2F0E0808148
:100C0000982F9C7FEA81FB818081892B8C93EA81DC
:100C1000FB818181813041F4AEE2B0E0EEE2F0E0B0
:100C2000808181608C9307C0AEE2B0E0EEE2F0E03C
:100C300080818E7F8C93EA81FB818781813041F4B2
:100C4000ADE2B0E0EDE2F0E0808180628C9307C01D
:100C5000ADE2B0E0EDE2F0E080818F7D8C93EA813F
:100C6000FB818381813069F4AFE5B0E0EFE5F0E02E
:100C7000808180688C93EA81FB81838180938000EE
:100C800013C0AFE5B0E0EFE5F0E080818F778C93A3
:100C9000ADE2B0E0EDE2F0E080818F778C93EA8105
:100CA000FB81838180938000EA81FB818481813094
:100CB00041F4ADE2B0E0EDE2F0E0808188608C9339
:100CC00007C0ADE2B0E0EDE2F0E08081877F8C9379
:100CD000EA81FB818581813041F4ADE2B0E0EDE253
:100CE000F0E0808184608C93ABC0ADE2B0E0EDE2D7
:100CF000F0E080818B7F8C93A3C081E08983A0C0CA
:100D0000EA81FB818281882309F08EC08CE060E05B
:100D10000E941D0A8DE060E00E941D0A8EE061E0E5
:100D20000E941D0A8FE060E00E941D0AADE2B0E063
:100D3000EDE2F0E080818F7E8C93AEE2B0E0EEE2F7
:100D4000F0E080818E7F8C93ADE2B0E0EDE2F0E0E8
:100D500080818E7F8C93ADE2B0E0EDE2F0E08081A7
:100D60008D7F8C93EA81FB818781813041F4ADE2F4
:100D7000B0E0EDE2F0E0808180628C9307C0ADE2EC
:100D8000B0E0EDE2F0E080818F7D8C93EA81FB8121
:100D90008381813069F4AFE5B0E0EFE5F0E0808178
:100DA00080688C93EA81FB8183818093800013C0EB
:100DB000AFE5B0E0EFE5F0E080818F778C93ADE2B6
:100DC000B0E0EDE2F0E080818F778C93EA81FB81E7
:100DD000838180938000EA81FB818481813041F4AA
:100DE000ADE2B0E0EDE2F0E0808188608C9307C076
:100DF000ADE2B0E0EDE2F0E08081877F8C93EA81A4
:100E0000FB818581813041F4ADE2B0E0EDE2F0E0BC
:100E1000808184608C9314C0ADE2B0E0EDE2F0E03C
:100E200080818B7F8C930CC081E0898309C081E035
:100E30008983ADE2B0E0EDE2F0E080818F7B8C93BE
:100E4000ADE2B0E0EDE2F0E0808180648C938981D6
:100E50000F900F900F90CF91DF910895DF93CF9374
:100E600000D0CDB7DEB78A831982809180008823B5
:100E700051F4EFE2F0E08A818083EEE2F0E08081DD
:100E80008823DCF711C080918000813059F48A8179
:100E900080938100ADE2B0E0EDE2F0E08081806817
:100EA0008C9302C081E0898389810F900F90CF914C
:100EB000DF910895DF93CF9300D00F92CDB7DEB7C7
:100EC0009B838A83198280918000882361F4EEE2FB
:100ED000F0E080818823DCF7EFE2F0E08081EA81B6
:100EE000FB8180830EC080918000813041F4ADE2AF
:100EF000B0E0EDE2F0E0808180688C9302C081E098
:100F0000898389810F900F900F90CF91DF91089581
:100F1000DF93CF9300D000D0CDB7DEB79C838B8317
:100F20001A8219820FC08981282F30E08B819C8121
:100F3000FC01E20FF31F80810E942E078A838981C2
:100F40008F5F89838981282F30E08B819C81FC0110
:100F5000E20FF31F8081882331F78A810F900F9071
:100F60000F900F90CF91DF910895DF93CF9300D032
:100F700000D0CDB7DEB79C838B831A82198289811A
:100F8000282F30E08B819C81820F931F0E945A078B
:100F90008A830DC089818F5F89838981282F30E002
:100FA0008B819C81820F931F0E945A078A838981BB
:100FB000282F30E08B819C81FC01E20FF31F8081A0
:100FC000833241F78981282F30E08B819C81FC019D
:100FD000E20FF31F10828A810F900F900F900F90F5
:100FE000CF91DF9108951F920F920FB60F921124A7
:100FF0008F93AF93BF93EF93FF93DF93CF93CDB7CF
:10100000DEB7ECE2F0E0809185008083AAE2B0E0F8
:10101000EAE2F0E080818F7D8C93CF91DF91FF91A8
:10102000EF91BF91AF918F910F900FBE0F901F90D6
:1010300018951F920F920FB60F9211248F93EF9372
:10104000FF93DF93CF93CDB7DEB7ECE2F0E0808182
:1010500080938400CF91DF91FF91EF918F910F905A
:101060000FBE0F901F901895DF93CF93CDB7DEB7CB
:1010700061970FB6F894DEBF0FBECDBF9B838A8306
:101080001982EA81FB818085282F30E0398B288BFB
:101090008889998981309105C1F028893989223060
:1010A0003105D9F0888999890097F1F4AAE2B0E076
:1010B000EAE2F0E0808180618C93AAE2B0E0EAE2AB
:1010C000F0E0808188608C930FC0AAE2B0E0EAE291
:1010D000F0E0808188608C9307C0AAE2B0E0EAE289
:1010E000F0E0808188608C93EA81FB818081282FE9
:1010F00030E03F872E878E859F85009731F02E85C3
:101100003F852130310581F01EC0ABE2B0E0EBE25B
:10111000F0E080818D7F8C93E0E4F0E01082E9E2E2
:10112000F0E083E3808311C0ABE2B0E0EBE2F0E0FB
:10113000808182608C93E0E4F0E01082E9E2F0E0EC
:1011400087E6808302C081E08983EA81FB81838115
:10115000282F30E03D872C878C859D85009731F0C6
:101160002C853D852130310581F017C0A0E4B0E029
:10117000E0E4F0E0808180688C93A0E4B0E0E0E4FB
:10118000F0E0808180648C930AC0A0E4B0E0E0E4E9
:10119000F0E080818F7B8C9302C081E08983EA81BB
:1011A000FB818481282F30E03B872A878A859B85B5
:1011B00087309105C9F12A853B85283031055CF4DB
:1011C0008A859B858530910589F02A853B85263067
:1011D000310511F141C08A859B858830910561F107
:1011E0002A853B852930310579F136C0A0E4B0E08D
:1011F000E0E4F0E080818D7F8C93A0E4B0E0E0E457
:10120000F0E080818B7F8C93AAE2B0E0EAE2F0E02C
:1012100080818B7F8C9322C0A0E4B0E0E0E4F0E01A
:10122000808182688C931AC0A0E4B0E0E0E4F0E032
:10123000808184688C9312C0A0E4B0E0E0E4F0E028
:10124000808186688C930AC0A0E4B0E0E0E4F0E01E
:10125000808186688C9302C081E08983EA81FB816A
:101260008581282F30E039872887888599858130C6
:101270009105C1F0288539852230310511F1888525
:101280009985009769F5A0E4B0E0E0E4F0E08081A2
:101290008F7D8C93A0E4B0E0E0E4F0E080818F7E6D
:1012A0008C9320C0A0E4B0E0E0E4F0E080818062B4
:1012B0008C93A0E4B0E0E0E4F0E080818F7E8C933A
:1012C00011C0A0E4B0E0E0E4F0E0808180628C93A3
:1012D000A0E4B0E0E0E4F0E0808180618C9302C0A3
:1012E00081E08983EA81FB818681282F30E03F837A
:1012F0002E838E819F81009731F02E813F81213096
:10130000310549F010C0A0E4B0E0E0E4F0E08081F5
:10131000877F8C930AC0A0E4B0E0E0E4F0E0808135
:1013200088608C9302C081E08983EA81FB81878198
:10133000282F30E03D832C838C819D81009731F0F4
:101340002C813D8121303105C9F016C0AAE2B0E000
:10135000EAE2F0E0808180648C93AAE2B0E0EAE205
:10136000F0E0808180688C93AFE5B0E0EFE5F0E0DD
:10137000808180688C9302C081E089838981619635
:101380000FB6F894DEBF0FBECDBFCF91DF910895A9
:10139000DF93CF9300D0CDB7DEB79A838983EBE29A
:1013A000F0E08081882F90E0807290700097B9F310
:1013B000ECE2F0E08981808380E00F900F90CF9184
:1013C000DF910895DF93CF9300D0CDB7DEB79A8336
:1013D0008983EBE2F0E080818823DCF7ECE2F0E047
:1013E0008081E981FA81808380E00F900F90CF9116
:1013F000DF910895DF93CF9300D00F92CDB7DEB782
:1014000089836A838981843078F48981882F90E088
:10141000880F991FFC01E059FF4F0190F081E02DEA
:101420008A8180831B8202C081E08B838B810F9035
:101430000F900F90CF91DF910895DF93CF9300D05D
:1014400000D00F92CDB7DEB78B836C838B81803257
:1014500008F05EC08B818695869586958A838B8100
:10146000877089838C81813031F58A81882F90E063
:10147000880F991FFC01E059FF4FA081B1818A813B
:10148000882F90E0880F991FFC01E059FF4F0190D1
:10149000F081E02D8081482F8981282F30E081E084
:1014A00090E0022E02C0880F991F0A94E2F7842B65
:1014B0008C931D822FC08C81882339F58A81882FD7
:1014C00090E0880F991FFC01E059FF4FA081B18186
:1014D0008A81882F90E0880F991FFC01E059FF4F07
:1014E0000190F081E02D8081482F8981282F30E004
:1014F00081E090E0022E02C0880F991F0A94E2F763
:10150000809584238C931D8205C081E08D8302C069
:1015100081E08D838D810F900F900F900F900F9031
:10152000CF91DF910895DF93CF9300D000D0CDB756
:10153000DEB789837B836A838981843088F48981DB
:10154000882F90E0880F991FFC01E858FF4F019009
:10155000F081E02D8081EA81FB8180831C8202C0C2
:1015600081E08C838C810F900F900F900F90CF9122
:10157000DF910895DF93CF9300D000D000D0CDB796
:10158000DEB78B837D836C838B81803290F58B817A
:101590008695869586958A838B81877089838A81D3
:1015A000882F90E0880F991FFC01E858FF4F0190A9
:1015B000F081E02D8081482F50E08981282F30E094
:1015C00081E090E002C0880F991F2A95E2F79A0106
:1015D000282339238981882F90E0A90102C05595DD
:1015E00047958A95E2F7CA01EC81FD8180831E82CE
:1015F00002C051E05E838E8126960FB6F894DEBF5E
:101600000FBECDBFCF91DF910895DF93CF9300D070
:101610000F92CDB7DEB789836A838981843078F4ED
:101620008981882F90E0880F991FFC01E859FF4FAE
:101630000190F081E02D8A8180831B8202C081E0CD
:101640008B838B810F900F900F90CF91DF91089536
:10165000DF93CF9300D000D00F92CDB7DEB78B834E
:101660006C838B81803208F05EC08B818695869575
:1016700086958A838B81877089838C81813031F54F
:101680008A81882F90E0880F991FFC01E859FF4F4D
:10169000A081B1818A81882F90E0880F991FFC0179
:1016A000E859FF4F0190F081E02D8081482F89811A
:1016B000282F30E081E090E0022E02C0880F991FB1
:1016C0000A94E2F7842B8C931D822FC08C8188238F
:1016D00039F58A81882F90E0880F991FFC01E8591D
:1016E000FF4FA081B1818A81882F90E0880F991FD8
:1016F000FC01E859FF4F0190F081E02D8081482FD7
:101700008981282F30E081E090E0022E02C0880F0E
:10171000991F0A94E2F7809584238C931D8205C05B
:1017200081E08D8302C081E08D838D810F900F90C9
:101730000F900F900F90CF91DF910895DF93CF938B
:1017400000D000D0CDB7DEB78B838B81803270F5AF
:101750008B818695869586958A838B818770898310
:101760008A81882F90E0880F991FFC01E859FF4F6C
:10177000A081B1818A81882F90E0880F991FFC0198
:10178000E859FF4F0190F081E02D8081482F898139
:10179000282F30E081E090E0022E02C0880F991FD0
:1017A0000A94E2F7842B8C931C8202C081E08C8324
:1017B0008C810F900F900F900F90CF91DF91089533
:1017C0001F920F920FB60F9211248F93DF93CF9336
:1017D000CDB7DEB781E080938600CF91DF918F9106
:1017E0000F900FBE0F901F9018951F920F920FB67B
:1017F0000F9211248F93DF93CF93CDB7DEB781E0A3
:1018000080938700CF91DF918F910F900FBE0F9043
:101810001F901895DF93CF93CDB7DEB72E970FB6F5
:10182000F894DEBF0FBECDBF0E94CF0C84E161E013
:101830000E941D0A80918200882379F483E890E059
:101840000E94E20980918300813421F484E161E007
:101850000E94280B81E08093820080918200813079
:1018600009F07AC080E090E0A8E4B2E48B879C871E
:10187000AD87BE876B857C858D859E8520E030E0B9
:101880004AEF54E40E941F02DC01CB018F8398874A
:10189000A987BA876F81788589859A8520E030E0AD
:1018A00040E85FE30E94790388232CF481E090E014
:1018B0009E838D833FC06F81788589859A8520E0DE
:1018C0003FEF4FE757E40E94190318164CF56B855C
:1018D0007C858D859E8520E030E040E251E40E94C9
:1018E0001F02DC01CB01BC01CD010E944900DC01DB
:1018F000CB019E838D830FC088EC90E09C838B830B
:101900008B819C810197F1F79C838B838D819E81D4
:1019100001979E838D838D819E81009769F714C006
:101920006F81788589859A850E944900DC01CB0109
:101930009E838D838D819E819A83898389819A81FB
:101940000197F1F79A838983809183000E942E0783
:1019500082E0809382006ECF80918200823009F015
:1019600069CF80918600813051F4809183008F5F30
:101970008093830081E080938200109286008091A2
:101980008700813009F056CF809183008150809389
:10199000830081E080938200109287004BCFDF9319
:1019A000CF93CDB7DEB762970FB6F894DEBF0FBE08
:1019B000CDBF80E895E29C838B8388E08E831A8676
:1019C00081E089871F821A82188681E08D83CE018B
:1019D00002960E9434081A8A1E86188A1F861B8661
:1019E00081E0898B81E08D871C86CE010B960E9459
:1019F000C9058AE060E00E941D0A8AE160E00E9459
:101A00001D0AABE5B0E0EBE5F0E0808180628C93ED
:101A1000ABE5B0E0EBE5F0E0808180648C93A4E579
:101A2000B0E0E4E5F0E0808180648C93A5E5B0E06F
:101A3000E5E5F0E0808181608C93A5E5B0E0E5E527
:101A4000F0E0808182608C93AFE5B0E0EFE5F0E0FC
:101A5000808180688C93898162960FB6F894DEBF8E
:101A60000FBECDBFCF91DF9108952F923F924F923D
:101A70005F926F927F928F929F92AF92BF92CF921E
:101A8000DF92EF92FF920F931F93CF93DF93CDB727
:101A9000DEB7CA1BDB0B0FB6F894DEBF0FBECDBF9F
:101AA00009942A88398848885F846E847D848C8470
:101AB0009B84AA84B984C884DF80EE80FD800C8179
:101AC0001B81AA81B981CE0FD11D0FB6F894DEBF5C
:0C1AD0000FBECDBFED010895F894FFCFCC
:101ADC0000000000000000003B0038003500320020
:101AEC003A00370034003100390036003300300042
:00000001FF
