:100000000C942A000C94A5100C9447000C94470003
:100010000C9447000C9447000C9447000C94470044
:100020000C9447000C9447000C9447000C94050A6C
:100030000C94BD050C9424080C94FE070C94470006
:100040000C9447000C9447000C9447000C94470014
:100050000C94470011241FBECFE5D8E0DEBFCDBF12
:1000600011E0A0E6B0E0E8E3F5E202C005900D92F1
:10007000A038B107D9F711E0A0E8B1E001C01D92A6
:10008000AB3AB107E1F70E9435110C949A120C9427
:100090000000EF92FF920F931F937B018C0120E0F1
:1000A00030E040E05FE40E94CB0288238CF0C8017E
:1000B000B70120E030E040E05FE40E94C1010E940F
:1000C000FB029B01AC01205030404040504806C02C
:1000D000C801B7010E94FB029B01AC01B901CA0132
:1000E0001F910F91FF90EF900895A0E0B0E0EBE733
:1000F000F0E00C946312DC012B01FA019C91923028
:1001000008F439C1EB018881823008F433C194309E
:1001100069F4843009F02FC111969C91119789815F
:10012000981709F428C1A0E6B0E025C1843009F48D
:1001300021C18230A9F4923009F01DC19A01AD01AC
:1001400088E0EA010990AE01E90109929E0181501F
:10015000C1F7E201898111969C918923818308C1AD
:10016000923009F407C112962D903C901397EB0141
:100170008A819B811496AD90BD90CD90DC901797AD
:10018000EC80FD800E811F819101281B390BB90184
:1001900037FF04C066277727621B730B6032710537
:1001A0000CF061C0121613066CF537014801062EDB
:1001B00004C096948794779467940A94D2F721E0C8
:1001C00030E040E050E004C0220F331F441F551FB1
:1001D0006A95D2F721503040404050402E213F21B7
:1001E00040235123211531054105510521F021E01E
:1001F00030E040E050E079018A01E628F72808293C
:1002000019293CC0232BD1F1260E371E350146019A
:10021000062E04C096948794779467940A94D2F734
:1002200021E030E040E050E004C0220F331F441FC3
:10023000551F6A95D2F721503040404050402A2146
:100240003B214C215D21211531054105510521F04E
:1002500021E030E040E050E059016A01A628B728CB
:10026000C828D9280BC0821593052CF01C01AA249C
:10027000BB24650103C0EE24FF24870111969C91E5
:10028000D20111968C91981709F445C0992339F041
:10029000A80197012A193B094C095D0906C0A6016E
:1002A00095012E193F09400B510B57FD08C01182D3
:1002B0003382228224833583468357831DC081E0A5
:1002C00081833382228288279927DC01821B930B4A
:1002D000A40BB50B84839583A683B7830DC0220F2F
:1002E000331F441F551F24833583468357838281E0
:1002F000938101979383828324813581468157813D
:10030000DA01C9010197A109B1098F5F9F4FAF4F72
:10031000BF4328F30BC0918333822282EA0CFB1C7B
:100320000C1D1D1DE482F5820683178383E0808304
:10033000248135814681578157FF1AC0C901AA27F8
:1003400097FDA095BA2F81709070A070B0705695EF
:10035000479537952795822B932BA42BB52B848318
:100360009583A683B7838281938101969383828349
:10037000DF0101C0D201CD01CDB7DEB7E2E10C94BF
:100380007F12A0E2B0E0E7ECF1E00C946F12698319
:100390007A838B839C832D833E834F835887E9E048
:1003A000EE2EF12CEC0EFD1ECE010196B7010E943F
:1003B000EC048E010F5E1F4FCE010596B8010E941E
:1003C000EC048A8991E089278A8BC701B801AE01C4
:1003D000475E5F4F0E9475000E941704A096E6E0FA
:1003E0000C948B12A0E2B0E0E8EFF1E00C946F12F5
:1003F00069837A838B839C832D833E834F835887C5
:10040000F9E0EF2EF12CEC0EFD1ECE010196B701A6
:100410000E94EC048E010F5E1F4FCE010596B801BD
:100420000E94EC04C701B801AE01475E5F4F0E9415
:1004300075000E941704A096E6E00C948B12A8E1C8
:10044000B0E0E5E2F2E00C946B1269837A838B836F
:100450009C832D833E834F835887B9E0EB2EF12C8C
:10046000EC0EFD1ECE010196B7010E94EC048E0138
:100470000F5E1F4FCE010596B8010E94EC0429853E
:10048000223008F47EC03989323010F4B8017CC0C3
:100490008A859A8989278A87243011F0223031F49D
:1004A000231709F06EC060E670E06EC0343039F496
:1004B0001D861E861F86188A1C861B8604C0323045
:1004C00021F484E08987B7015FC02B853C858B8947
:1004D0009C89281B390B3C872B87ED84FE840F8574
:1004E0001889AD88BE88CF88D88CEA14FB040C0527
:1004F0001D0540F4EE0CFF1C001F111F2150304061
:100500003C872B8720E030E040E050E080E090E046
:10051000A0E0B0E460E070E0EA14FB040C051D0507
:1005200040F0282B392B4A2B5B2BEA18FB080C09CF
:100530001D09B695A79597958795EE0CFF1C001F92
:10054000111F6F5F7F4F6F31710531F7DA01C901FC
:100550008F779070A070B07080349105A105B105BF
:1005600061F427FD0AC0E114F1040105110529F029
:10057000205C3F4F4F4F5F4F20782D873E874F873E
:10058000588BBE01675F7F4FCB010E9417046896AE
:10059000EAE00C948712A8E1B0E0E1EDF2E00C94FF
:1005A0006F1269837A838B839C832D833E834F8371
:1005B000588789E0E82EF12CEC0EFD1ECE01019645
:1005C000B7010E94EC048E010F5E1F4FCE0105960D
:1005D000B8010E94EC048985823040F0898982301C
:1005E00028F0C701B8010E94640501C08FEF68962A
:1005F000E6E00C948B12ACE0B0E0E1E0F3E00C94A8
:10060000731269837A838B839C83CE010196BE012A
:100610006B5F7F4F0E94EC048D81823061F18230EC
:1006200050F1843021F48E81882351F12EC02F8126
:10063000388537FD20C06E812F3131051CF06623CF
:10064000F9F023C08EE190E0821B930B29853A8557
:100650004B855C8504C056954795379527958A95B7
:10066000D2F76623B1F050954095309521953F4FD4
:100670004F4F5F4F0EC020E030E040E050E009C037
:100680002FEF3FEF4FEF5FE704C020E030E040E0A6
:1006900050E8B901CA012C96E2E00C948F12A8E050
:1006A000B0E0E5E5F3E00C946B127B018C01611581
:1006B00071058105910519F482E0898360C083E0AA
:1006C00089838EE1C82ED12CDC82CB82ED82FE8222
:1006D0000F831887C801B7010E94C803FC01319736
:1006E000F7FF3BC0222733272E1B3F0B5701680122
:1006F000022E04C0D694C794B794A7940A94D2F754
:1007000040E050E060E070E081E090E0A0E0B0E028
:1007100004C0880F991FAA1FBB1F2A95D2F7019703
:10072000A109B1098E219F21A023B1230097A10522
:10073000B10521F041E050E060E070E04A295B291A
:100740006C297D294D835E836F8378878EE190E0ED
:100750008E1B9F0B9C838B8312C0309781F00E2ED3
:1007600004C0EE0CFF1C001F111F0A94D2F7ED828B
:10077000FE820F831887CE1ADF0ADC82CB821A82B0
:10078000CE0101960E9417042896EAE00C94871285
:10079000EF92FF920F931F937B018C0180E0E8168C
:1007A00080E0F80681E0080780E0180788F48FEF02
:1007B000E816F1040105110531F028F088E090E019
:1007C000A0E0B0E017C080E090E0A0E0B0E012C090
:1007D00080E0E81680E0F80680E0080781E018076E
:1007E00028F088E190E0A0E0B0E004C080E190E073
:1007F000A0E0B0E020E230E040E050E0281B390B00
:100800004A0B5B0B04C016950795F794E7948A95FD
:10081000D2F7F701E859FF4F8081281B31094109C0
:100820005109C9011F910F91FF90EF900895DF9238
:10083000EF92FF920F931F93FC01E480F5800681F5
:100840001781D1808081823048F480E090E0A0E17F
:10085000B0E0E82AF92A0A2B1B2BA5C0843009F442
:100860009FC0823021F4EE24FF24870105C0E114EB
:10087000F1040105110519F4E0E0F0E096C0628191
:1008800073819FEF623879070CF05BC022E83FEF7D
:10089000261B370B2A3131052CF020E030E040E0F8
:1008A00050E02AC0B801A701022E04C076956795D2
:1008B000579547950A94D2F781E090E0A0E0B0E028
:1008C00004C0880F991FAA1FBB1F2A95D2F7019752
:1008D000A109B1098E219F21A023B1230097A10571
:1008E000B10521F081E090E0A0E0B0E09A01AB0119
:1008F000282B392B4A2B5B2BDA01C9018F7790709B
:10090000A070B07080349105A105B10539F427FFBE
:1009100009C0205C3F4F4F4F5F4F04C0215C3F4FE9
:100920004F4F5F4FE0E0F0E02030A0E03A07A0E05A
:100930004A07A0E45A0710F0E1E0F0E079018A01EB
:1009400027C06038710564F5FB01E158FF4FD801FD
:10095000C7018F779070A070B07080349105A105A9
:10096000B10539F4E7FE0DC080E490E0A0E0B0E00E
:1009700004C08FE390E0A0E0B0E0E80EF91E0A1F8B
:100980001B1F17FF05C016950795F794E79431963E
:1009900087E016950795F794E7948A95D1F705C0F7
:1009A000EE24FF248701EFEFF0E06E2F67956627B6
:1009B0006795902F9F77D794DD24D7948E2F8695B7
:1009C000492F462B582F5D29B701CA011F910F915E
:1009D000FF90EF90DF900895FC01DB014081518191
:1009E0002281622F6F7770E0221F2227221F9381BE
:1009F000892F880F822B282F30E0991F9927991F64
:100A000011969C93119721153105A9F541155105B2
:100A10006105710511F482E037C082E89FEF1396FB
:100A20009C938E9312979A01AB0167E0220F331FBC
:100A3000441F551F6A95D1F783E08C930DC0220F98
:100A4000331F441F551F12968D919C911397019748
:100A500013969C938E931297203080E0380780E0A5
:100A6000480780E4580758F314962D933D934D930F
:100A70005C93179708952F3F310579F4411551057F
:100A80006105710519F484E08C93089564FF03C037
:100A900081E08C9312C01C9210C02F5730401396E7
:100AA0003C932E93129783E08C9387E0440F551F5D
:100AB000661F771F8A95D1F7706414964D935D93E6
:100AC0006D937C93179708951F93DC01FB019C9114
:100AD000923008F447C08081823008F443C09430DB
:100AE00051F411961C91843099F58181682F70E042
:100AF000611B71093FC0843021F0923031F48230A3
:100B0000B9F18181882389F12DC011961C9111972B
:100B10008230F1F081811817D9F412962D913C9111
:100B20001397828193818217930794F028173907CE
:100B3000BCF014968D919D910D90BC91A02D2481B7
:100B4000358146815781281739074A075B0718F412
:100B5000112341F00AC082179307A407B50740F498
:100B6000112319F061E070E005C06FEF7FEF02C064
:100B700060E070E0CB011F9108951F920F920FB6B5
:100B80000F9211248F93AF93BF93EF93FF93DF9353
:100B9000CF93CDB7DEB781E080938001ADE2B0E0C6
:100BA000EDE2F0E080818F778C93CF91DF91FF9120
:100BB000EF91BF91AF918F910F900FBE0F901F904B
:100BC0001895DF93CF9300D00F92CDB7DEB79B83FC
:100BD0008A831982EA81FB818681813009F03FC1D5
:100BE000EA81FB818281813009F0A2C08CE061E062
:100BF0000E94E20E8DE061E00E94E20E8EE060E075
:100C00000E94E20E8FE061E00E94E20EADE2B0E0F1
:100C1000EDE2F0E0808180618C93EA81FB8180814C
:100C2000843008F082C0ADE2B0E0EDE2F0E0808117
:100C3000982F9C7FEA81FB818081892B8C93EA81AC
:100C4000FB818181813041F4AEE2B0E0EEE2F0E080
:100C5000808181608C9307C0AEE2B0E0EEE2F0E00C
:100C600080818E7F8C93EA81FB818781813041F482
:100C7000ADE2B0E0EDE2F0E0808180628C9307C0ED
:100C8000ADE2B0E0EDE2F0E080818F7D8C93EA810F
:100C9000FB818381813069F4AFE5B0E0EFE5F0E0FE
:100CA000808180688C93EA81FB81838180938101BC
:100CB00013C0AFE5B0E0EFE5F0E080818F778C9373
:100CC000ADE2B0E0EDE2F0E080818F778C93EA81D5
:100CD000FB81838180938101EA81FB818481813062
:100CE00041F4ADE2B0E0EDE2F0E0808188608C9309
:100CF00007C0ADE2B0E0EDE2F0E08081877F8C9349
:100D0000EA81FB818581813041F4ADE2B0E0EDE222
:100D1000F0E0808184608C93ABC0ADE2B0E0EDE2A6
:100D2000F0E080818B7F8C93A3C081E08983A0C099
:100D3000EA81FB818281882309F08EC08CE060E02B
:100D40000E94E20E8DE060E00E94E20E8EE061E023
:100D50000E94E20E8FE060E00E94E20EADE2B0E0A1
:100D6000EDE2F0E080818F7E8C93AEE2B0E0EEE2C7
:100D7000F0E080818E7F8C93ADE2B0E0EDE2F0E0B8
:100D800080818E7F8C93ADE2B0E0EDE2F0E0808177
:100D90008D7F8C93EA81FB818781813041F4ADE2C4
:100DA000B0E0EDE2F0E0808180628C9307C0ADE2BC
:100DB000B0E0EDE2F0E080818F7D8C93EA81FB81F1
:100DC0008381813069F4AFE5B0E0EFE5F0E0808148
:100DD00080688C93EA81FB8183818093810113C0B9
:100DE000AFE5B0E0EFE5F0E080818F778C93ADE286
:100DF000B0E0EDE2F0E080818F778C93EA81FB81B7
:100E0000838180938101EA81FB818481813041F477
:100E1000ADE2B0E0EDE2F0E0808188608C9307C045
:100E2000ADE2B0E0EDE2F0E08081877F8C93EA8173
:100E3000FB818581813041F4ADE2B0E0EDE2F0E08C
:100E4000808184608C9314C0ADE2B0E0EDE2F0E00C
:100E500080818B7F8C930CC081E0898309C081E005
:100E60008983ADE2B0E0EDE2F0E080818F7B8C938E
:100E7000ADE2B0E0EDE2F0E0808180648C938981A6
:100E80000F900F900F90CF91DF910895DF93CF9344
:100E900000D0CDB7DEB78A8380918101882351F4D9
:100EA000EFE2F0E08A818083EEE2F0E08081882347
:100EB000DCF70EC080918101813051F48A818093EA
:100EC0008201ADE2B0E0EDE2F0E0808180688C93D9
:100ED00089810F900F90CF91DF910895DF93CF9389
:100EE00000D00F92CDB7DEB79B838A8380918101BA
:100EF000882361F4EEE2F0E080818823DCF7EFE202
:100F0000F0E08081EA81FB8180830BC080918101C8
:100F1000813039F4ADE2B0E0EDE2F0E0808180684C
:100F20008C9389810F900F900F90CF91DF9108954E
:100F3000DF93CF9300D000D0CDB7DEB79C838B83F7
:100F400019820EC08981282F30E08B819C81FC01A1
:100F5000E20FF31F80810E94460789818F5F89839A
:100F60008981282F30E08B819C81FC01E20FF31FE7
:100F70008081882339F78A810F900F900F900F900E
:100F8000CF91DF910895DF93CF9300D000D0CDB7FC
:100F9000DEB79C838B8319828981282F30E08B8177
:100FA0009C81820F931F0E946E070CC089818F5F06
:100FB00089838981282F30E08B819C81820F931F48
:100FC0000E946E078981282F30E08B819C81FC0173
:100FD000E20FF31F8081833249F78981282F30E0A7
:100FE0008B819C81FC01E20FF31F10828A810F909C
:100FF0000F900F900F90CF91DF9108951F920F9255
:101000000FB60F9211248F93AF93BF93EF93FF937B
:10101000DF93CF93CDB7DEB7ECE2F0E0809196019D
:101020008083AAE2B0E0EAE2F0E080818F7D8C93D9
:10103000CF91DF91FF91EF91BF91AF918F910F9081
:101040000FBE0F901F9018951F920F920FB60F9220
:1010500011248F93EF93FF93DF93CF93CDB7DEB738
:10106000ECE2F0E0808180939501CF91DF91FF91D8
:10107000EF918F910F900FBE0F901F901895DF93F7
:10108000CF93CDB7DEB761970FB6F894DEBF0FBE32
:10109000CDBF9B838A831982EA81FB818085282FBB
:1010A00030E0398B288B8889998981309105C1F08E
:1010B0002889398922303105D9F0888999890097A2
:1010C000F1F4AAE2B0E0EAE2F0E0808180618C9382
:1010D000AAE2B0E0EAE2F0E0808188608C930FC081
:1010E000AAE2B0E0EAE2F0E0808188608C9307C079
:1010F000AAE2B0E0EAE2F0E0808188608C93EA81C5
:10110000FB818081282F30E03F872E878E859F8549
:10111000009731F02E853F852130310581F01EC0CA
:10112000ABE2B0E0EBE2F0E080818D7F8C93E0E415
:10113000F0E01082E9E2F0E083E3808311C0ABE2EB
:10114000B0E0EBE2F0E0808182608C93E0E4F0E0DC
:101150001082E9E2F0E087E6808302C081E08983C3
:10116000EA81FB818381282F30E03D872C878C85A5
:101170009D85009731F02C853D852130310581F02A
:1011800017C0A0E4B0E0E0E4F0E0808180688C93D8
:10119000A0E4B0E0E0E4F0E0808180648C930AC0D9
:1011A000A0E4B0E0E0E4F0E080818F7B8C9302C0AB
:1011B00081E08983EA81FB818481282F30E03B87AD
:1011C0002A878A859B8587309105C9F12A853B85C9
:1011D000283031055CF48A859B858530910589F03E
:1011E0002A853B852630310511F141C08A859B85D2
:1011F0008830910561F12A853B852930310579F1E7
:1012000036C0A0E4B0E0E0E4F0E080818D7F8C9314
:10121000A0E4B0E0E0E4F0E080818B7F8C93AAE270
:10122000B0E0EAE2F0E080818B7F8C9322C0A0E402
:10123000B0E0E0E4F0E0808182688C931AC0A0E422
:10124000B0E0E0E4F0E0808184688C9312C0A0E418
:10125000B0E0E0E4F0E0808186688C930AC0A0E40E
:10126000B0E0E0E4F0E0808186688C9302C081E029
:101270008983EA81FB818581282F30E0398728879F
:101280008885998581309105C1F02885398522307E
:10129000310511F188859985009769F5A0E4B0E0E2
:1012A000E0E4F0E080818F7D8C93A0E4B0E0E0E4A6
:1012B000F0E080818F7E8C9320C0A0E4B0E0E0E479
:1012C000F0E0808180628C93A0E4B0E0E0E4F0E0A4
:1012D00080818F7E8C9311C0A0E4B0E0E0E4F0E068
:1012E000808180628C93A0E4B0E0E0E4F0E0808153
:1012F00080618C9302C081E08983EA81FB818681D1
:10130000282F30E03F832E838E819F81009731F01C
:101310002E813F812130310549F010C0A0E4B0E0BA
:10132000E0E4F0E08081877F8C930AC0A0E4B0E025
:10133000E0E4F0E0808188608C9302C081E08983E2
:10134000EA81FB818781282F30E03D832C838C81CB
:101350009D81009731F02C813D8121303105C9F00C
:1013600016C0AAE2B0E0EAE2F0E0808180648C93EB
:10137000AAE2B0E0EAE2F0E0808180688C93AFE519
:10138000B0E0EFE5F0E0808180688C9302C081E0FE
:101390008983898161960FB6F894DEBF0FBECDBFF9
:1013A000CF91DF910895DF93CF9300D0CDB7DEB713
:1013B0009A838983EBE2F0E08081882F90E080724D
:1013C00090700097B9F3ECE2F0E08981808380E0CF
:1013D0000F900F90CF91DF910895DF93CF9300D0BE
:1013E000CDB7DEB79A838983EBE2F0E08081882372
:1013F000DCF7ECE2F0E08081E981FA81808380E033
:101400000F900F90CF91DF9108951F920F920FB61A
:101410000F921124EF92FF920F931F932F933F93FC
:101420004F935F938F939F93AF93BF93EF93FF93EC
:10143000DF93CF93CDB7DEB780919F019091A0014C
:10144000A091A101B091A2010097A105B10509F4F5
:1014500063C080919F019091A001A091A101B091E2
:10146000A2018F3F9105A105B10580F5E2E5F0E00D
:1014700080919F019091A001A091A101B091A20142
:101480008095808320919F013091A0014091A1011E
:101490005091A20180919F019091A001A091A10182
:1014A000B091A20179018A01E81AF90A0A0B1B0B13
:1014B000D801C70180939F019093A001A093A1013F
:1014C000B093A201E8E3F0E0108258C080919F0140
:1014D0009091A001A091A101B091A2018F3F91052F
:1014E000A105B10508F44AC0E2E5F0E01082809160
:1014F0009F019091A001A091A101B091A2018F5FE5
:101500009040A040B04080939F019093A001A09391
:10151000A101B093A20132C080919F019091A001DE
:10152000A091A101B091A2010097A105B10531F5EB
:101530008091860190918701A0918801B0918901E5
:1015400080939F019093A001A093A101B093A20169
:10155000E2E5F0E010828091970190919801A091CE
:101560009901B0919A010196A11DB11D8093970137
:1015700090939801A0939901B0939A01CF91DF9134
:10158000FF91EF91BF91AF919F918F915F914F919B
:101590003F912F911F910F91FF90EF900F900FBEF1
:1015A0000F901F901895DF93CF93CDB7DEB7A3E5CB
:1015B000B0E0E3E5F0E080818B7F8C93A3E5B0E0C1
:1015C000E3E5F0E080818D7F8C93A3E5B0E0E3E577
:1015D000F0E080818E7F8C93CF91DF910895DF932F
:1015E000CF93CDB7DEB7AEE4B0E0EEE4F0E08081BB
:1015F0008B7F8C93AEE4B0E0EEE4F0E080818D7FF1
:101600008C93AEE4B0E0EEE4F0E080818E7F8C93CA
:10161000CF91DF910895DF93CF93CDB7DEB7A5E4E7
:10162000B0E0E5E4F0E080818B7F8C93A5E4B0E04E
:10163000E5E4F0E080818D7F8C93A5E4B0E0E5E403
:10164000F0E080818E7F8C93CF91DF910895DF93BE
:10165000CF9300D000D000D0CDB7DEB79E838D836E
:10166000ED81FE8183818C83ED81FE8181818B837D
:10167000ED81FE8180818A83ED81FE818281898373
:101680008A81882F90E0FC01ED57FE4F8B8180838B
:101690008A818823B1F4A3E5B0E0E3E5F0E080813E
:1016A0008F7B8C93A3E5B0E0E3E5F0E08081877F5A
:1016B0008C93A9E5B0E0E9E5F0E0808181608C934E
:1016C0003FC08A81813021F5AFE4B0E0EFE4F0E083
:1016D00080818E7F8C93AFE4B0E0EFE4F0E0808116
:1016E0008D7F8C93AEE4B0E0EEE4F0E08081877F04
:1016F0008C93AEE4B0E0EEE4F0E080818F7E8C93DA
:10170000A9E5B0E0E9E5F0E0808184608C9318C041
:101710008A818230A9F4A3E5B0E0E3E5F0E08081BE
:101720008F7B8C93A3E5B0E0E3E5F0E08081877FD9
:101730008C93A9E5B0E0E9E5F0E0808181608C93CD
:1017400080E026960FB6F894DEBF0FBECDBFCF91D6
:10175000DF910895EF92FF920F931F93DF93CF9342
:10176000CDB7DEB765970FB6F894DEBF0FBECDBF1D
:101770008D874E875F87688B798B80E090E0A0E053
:10178000B0E089879A87AB87BC878D85882309F06D
:1017900052C18D85882F90E0FC01ED57FE4F80816E
:1017A000E82EFF24FD8AEC8A0C891D89033011057F
:1017B000E1F12C893D89243031055CF48C899D89C7
:1017C0008130910591F00C891D8902301105E9F0F5
:1017D0005BC02C893D8924303105B9F18C899D8904
:1017E0008530910509F441C04FC0A3E5B0E0E3E5C1
:1017F000F0E0808181608C9380E090E0A0E0B0E038
:1018000089879A87AB87BC873FC0A3E5B0E0E3E553
:10181000F0E0808182608C9380E090E0A0E8BFE3FC
:1018200089879A87AB87BC872FC0A3E5B0E0E3E543
:10183000F0E0808183608C9380E090E0A0E0B1E4F0
:1018400089879A87AB87BC871FC0A3E5B0E0E3E533
:10185000F0E0808184608C9380E090E0A0E0B2E4CE
:1018600089879A87AB87BC870FC0A3E5B0E0E3E523
:10187000F0E0808185608C9380E090E0A0E0B3E4AC
:1018800089879A87AB87BC878E859F85A889B98908
:1018900028EE33E040E050E0BC01CD010E9422126E
:1018A000DC01CB01BC01CD010E944F03DC01CB0167
:1018B000BC01CD0129853A854B855C850E941F02BC
:1018C000DC01CB01BC01CD010E944900DC01CB0150
:1018D00080939F019093A001A093A101B093A201D6
:1018E00080919F019091A001A091A101B091A201CE
:1018F0008093860190938701A0938801B09389011A
:1019000081E090E0A0E0B0E08D839E83AF83B88754
:101910001092A3011092A4011092A5011092A601A9
:1019200071C080919F019091A001A091A101B091FF
:10193000A2018F3F9105A105B10568F5E2E5F0E050
:1019400080919F019091A001A091A101B091A2016D
:101950008095808320919F013091A0014091A10149
:101960005091A20180919F019091A001A091A101AD
:10197000B091A20179018A01E81AF90A0A0B1B0B3E
:10198000D801C70180939F019093A001A093A1016A
:10199000B093A201BFC180919F019091A001A0913D
:1019A000A101B091A2018F3F9105A105B105B8F049
:1019B000E2E5F0E0108280919F019091A001A0915A
:1019C000A101B091A2018F5F9040A040B0408093F0
:1019D0009F019093A001A093A101B093A2018091D7
:1019E000A3019091A401A091A501B091A601019637
:1019F000A11DB11D8093A3019093A401A093A50103
:101A0000B093A6018D819E81AF81B8859C01AD0107
:101A10002F5F3F4F4F4F5F4F8091A3019091A401E3
:101A2000A091A501B091A60182179307A407B5075D
:101A300008F477CF6FC18D85823009F06BC18D8539
:101A4000882F90E0FC01ED57FE4F8081082F10E0B9
:101A50001B8B0A8B2A893B8923303105E1F18A8966
:101A60009B89843091055CF40A891B89013011053A
:101A700091F02A893B8922303105E9F05CC08A89DE
:101A80009B8984309105B9F10A891B8905301105BC
:101A900009F441C050C0A5E4B0E0E5E4F0E0808185
:101AA00081608C9380E090E0A0E0B0E089879A8725
:101AB000AB87BC8748C0A5E4B0E0E5E4F0E08081F6
:101AC00082608C9380E090E0A0E8BFE389879A87EA
:101AD000AB87BC8738C0A5E4B0E0E5E4F0E08081E6
:101AE00083608C9380E090E0A0E0B1E489879A87DE
:101AF000AB87BC8728C0A5E4B0E0E5E4F0E08081D6
:101B000084608C9380E090E0A0E0B2E489879A87BB
:101B1000AB87BC8718C0A5E4B0E0E5E4F0E08081C5
:101B200085608C9380E090E0A0E0B3E489879A8799
:101B3000AB87BC8708C080E090E0A0E0B3E4898771
:101B40009A87AB87BC878E859F85A889B98928EE3F
:101B500033E040E050E0BC01CD010E942212DC01E4
:101B6000CB01BC01CD010E944F03DC01CB01BC01C4
:101B7000CD0129853A854B855C850E941F02DC01D9
:101B8000CB01BC01CD010E944900DC01CB01809357
:101B90009F019093A001A093A101B093A201809115
:101BA0009F019091A001A091A101B091A2012FEFFE
:101BB00030E040E050E0BC01CD010E944112DA016A
:101BC000C90189839A83AB83BC831092A3011092CD
:101BD000A4011092A5011092A60182C080919F01DC
:101BE0009091A001A091A101B091A2018F3F910518
:101BF000A105B10528F5E4E4F0E080919F01909102
:101C0000A001A091A101B091A20180958083E8E597
:101C1000F0E08081882F90E080749070082E892FEA
:101C2000000C881F990B000C881F991F009779F3EF
:101C3000A8E5B0E0E8E5F0E0808181608C9368C0C1
:101C400080919F019091A001A091A101B091A2016A
:101C50008F3F9105A105B10508F45AC0E4E4F0E016
:101C60001082E8E5F0E08081882F90E08074907029
:101C7000082E892F000C881F990B000C881F991FB4
:101C8000009779F3A8E5B0E0E8E5F0E080818160B5
:101C90008C9380919F019091A001A091A101B0919E
:101CA000A2018F5F9040A040B04080939F0190932D
:101CB000A001A093A101B093A2018091A3019091F2
:101CC000A401A091A501B091A6010196A11DB11D8D
:101CD0008093A3019093A401A093A501B093A601C2
:101CE00089819A81AB81BC819C01AD012F5F3F4FFF
:101CF0004F4F5F4F8091A3019091A401A091A50146
:101D0000B091A60182179307A407B50708F466CF20
:101D10000E940B0B80E065960FB6F894DEBF0FBEF5
:101D2000CDBFCF91DF911F910F91FF90EF9008955C
:101D3000DF93CF9300D00F92CDB7DEB7898389812F
:101D4000282F30E03B832A838A819B818130910553
:101D500059F02A813B812230310541F08A819B81F3
:101D6000009731F40E94D30A0E94EF0A0E940B0BE5
:101D700080E00F900F900F90CF91DF910895DF9347
:101D8000CF9300D00F92CDB7DEB789836A83898164
:101D9000843078F48981882F90E0880F991FFC01A6
:101DA000E059FE4F0190F081E02D8A8180831B82F3
:101DB00002C081E08B838B810F900F900F90CF91A9
:101DC000DF910895DF93CF9300D000D00F92CDB76D
:101DD000DEB78B836C838B81803208F05EC08B8191
:101DE0008695869586958A838B81877089838C8179
:101DF000813031F58A81882F90E0880F991FFC018E
:101E0000E059FE4FA081B1818A81882F90E0880F30
:101E1000991FFC01E059FE4F0190F081E02D808177
:101E2000482F8981282F30E081E090E0022E02C007
:101E3000880F991F0A94E2F7842B8C931D822FC080
:101E40008C81882339F58A81882F90E0880F991F2B
:101E5000FC01E059FE4FA081B1818A81882F90E07A
:101E6000880F991FFC01E059FE4F0190F081E02D91
:101E70008081482F8981282F30E081E090E0022E78
:101E800002C0880F991F0A94E2F7809584238C93EF
:101E90001D8205C081E08D8302C081E08D838D812C
:101EA0000F900F900F900F900F90CF91DF910895AA
:101EB000DF93CF9300D000D0CDB7DEB789837B838B
:101EC0006A838981843088F48981882F90E0880F23
:101ED000991FFC01E858FE4F0190F081E02D8081B0
:101EE000EA81FB8180831C8202C081E08C838C812B
:101EF0000F900F900F900F90CF91DF910895DF9387
:101F0000CF9300D000D000D0CDB7DEB78B837D83D8
:101F10006C838B81803290F58B8186958695869532
:101F20008A838B81877089838A81882F90E0880FCC
:101F3000991FFC01E858FE4F0190F081E02D80814F
:101F4000482F50E08981282F30E081E090E002C0E6
:101F5000880F991F2A95E2F79A012823392389814E
:101F6000882F90E0A90102C0559547958A95E2F720
:101F7000CA01EC81FD8180831E8202C051E05E8334
:101F80008E8126960FB6F894DEBF0FBECDBFCF91DF
:101F9000DF910895DF93CF9300D00F92CDB7DEB7D6
:101FA00089836A838981843078F48981882F90E0DD
:101FB000880F991FFC01E859FE4F0190F081E02D38
:101FC0008A8180831B8202C081E08B838B810F908A
:101FD0000F900F90CF91DF910895DF93CF9300D0B2
:101FE00000D00F92CDB7DEB78B836C838B818032AC
:101FF00008F05EC08B818695869586958A838B8155
:10200000877089838C81813031F58A81882F90E0B7
:10201000880F991FFC01E859FE4FA081B1818A8188
:10202000882F90E0880F991FFC01E859FE4F01901E
:10203000F081E02D8081482F8981282F30E081E0D8
:1020400090E0022E02C0880F991F0A94E2F7842BB9
:102050008C931D822FC08C81882339F58A81882F2B
:1020600090E0880F991FFC01E859FE4FA081B181D3
:102070008A81882F90E0880F991FFC01E859FE4F54
:102080000190F081E02D8081482F8981282F30E058
:1020900081E090E0022E02C0880F991F0A94E2F7B7
:1020A000809584238C931D8205C081E08D8302C0BE
:1020B00081E08D838D810F900F900F900F900F9086
:1020C000CF91DF910895DF93CF9300D000D0CDB7AB
:1020D000DEB78B838B81803270F58B8186958695F8
:1020E00086958A838B81877089838A81882F90E087
:1020F000880F991FFC01E859FE4FA081B1818A81A8
:10210000882F90E0880F991FFC01E859FE4F01903D
:10211000F081E02D8081482F8981282F30E081E0F7
:1021200090E0022E02C0880F991F0A94E2F7842BD8
:102130008C931C8202C081E08C838C810F900F9065
:102140000F900F90CF91DF9108951F920F920FB6CD
:102150000F9211242F933F934F935F936F937F932D
:102160008F939F93AF93BF93EF93FF93DF93CF939F
:10217000CDB7DEB780918E01882331F480918E0136
:102180008F5F80938E015EC080919101282F30E097
:102190008AEF90E0AC01249FC001259F900D349FF1
:1021A000900D1124AA2797FDA095BA2F2091970191
:1021B000309198014091990150919A01BC01CD0153
:1021C0000E942212DC01CB0128EE33E040E050E017
:1021D000BC01CD010E944112DA01C9019C01AD018F
:1021E0008091A7019091A801A091A901B091AA01A5
:1021F000820F931FA41FB51F8093A7019093A8017E
:10220000A093A901B093AA01E5E3F0E080919701C2
:1022100090919801A0919901B0919A018083809149
:10222000A7019091A801A091A901B091AA01882FBE
:1022300090E00E94D3091092900110929101E2E582
:10224000F0E01082CF91DF91FF91EF91BF91AF91BC
:102250009F918F917F916F915F914F913F912F91BE
:102260000F900FBE0F901F901895DF93CF93CDB7AF
:10227000DEB7E4E3F0E08FEF808384E061E00E946A
:10228000E20E0E94B011809190018823C1F480E990
:1022900091E00E946E0780919001813421F484E0E6
:1022A00061E00E94ED0F809190018093910180E0A8
:1022B0004AEF50E060E070E00E94AA0BE4CF80E9B2
:1022C00091E00E946E0780919101282F30E08AEF03
:1022D00090E0AC01249FC001259F900D349F900D8C
:1022E0001124AA2797FDA095BA2F2091970130912C
:1022F00098014091990150919A01BC01CD010E9431
:102300002212DC01CB0128EE33E040E050E0BC01BA
:10231000CD010E944112DA01C9019C01AD018091F9
:10232000A7019091A801A091A901B091AA01820FE3
:10233000931FA41FB51F8093A7019093A801A0939A
:10234000A901B093AA0110929701109298011092DE
:10235000990110929A01809190018093910193CFFD
:10236000DF93CF93CDB7DEB76C970FB6F894DEBF8F
:102370000FBECDBF80E895E29E838D8381E08B8781
:1023800088E088871C8619861C821A8681E08F83E4
:10239000CE0104960E943F081C8A188A1A8A198A5C
:1023A0001D8681E08B8B1F861E86CE010D960E94B6
:1023B000E105CE0145969A838983E981FA811382EA
:1023C000E981FA8182E390E0A0E0B0E08483958324
:1023D000A683B783E981FA811082E981FA811282AA
:1023E000E981FA8185E0818389819A810E94270BA6
:1023F0008AE160E00E94E20EABE5B0E0EBE5F0E0E0
:10240000808180648C93A5E5B0E0E5E5F0E0808113
:1024100081608C93A5E5B0E0E5E5F0E08081826025
:102420008C93AFE5B0E0EFE5F0E0808180688C93BD
:102430008B816C960FB6F894DEBF0FBECDBFCF91E7
:10244000DF910895629FD001739FF001829FE00D9C
:10245000F11D649FE00DF11D929FF00D839FF00D23
:10246000749FF00D659FF00D9927729FB00DE11DCF
:10247000F91F639FB00DE11DF91FBD01CF011124AC
:102480000895A1E21A2EAA1BBB1BFD010DC0AA1FB5
:10249000BB1FEE1FFF1FA217B307E407F50720F0CD
:1024A000A21BB30BE40BF50B661F771F881F991F48
:1024B0001A9469F760957095809590959B01AC0191
:1024C000BD01CF0108952F923F924F925F926F927C
:1024D0007F928F929F92AF92BF92CF92DF92EF92B4
:1024E000FF920F931F93CF93DF93CDB7DEB7CA1B35
:1024F000DB0B0FB6F894DEBF0FBECDBF09942A8860
:10250000398848885F846E847D848C849B84AA8407
:10251000B984C884DF80EE80FD800C811B81AA8194
:10252000B981CE0FD11D0FB6F894DEBF0FBECDBF5F
:08253000ED010895F894FFCFBE
:102538000000000000000000000102020303030382
:10254800040404040404040405050505050505053B
:10255800050505050505050506060606060606061B
:102568000606060606060606060606060606060603
:1025780006060606060606060707070707070707EB
:1025880007070707070707070707070707070707D3
:1025980007070707070707070707070707070707C3
:1025A80007070707070707070707070707070707B3
:1025B800070707070707070708080808080808089B
:1025C8000808080808080808080808080808080883
:1025D8000808080808080808080808080808080873
:1025E8000808080808080808080808080808080863
:1025F8000808080808080808080808080808080853
:102608000808080808080808080808080808080842
:102618000808080808080808080808080808080832
:102628000808080808080808080808080808080822
:1026380008080808080808083B0038003500320078
:102648003A003700340031003900360033003000DA
:00000001FF
