:100000000C942A000C9447000C9447000C94470071
:100010000C9447000C9447000C9447000C94470044
:100020000C9447000C9447000C9447000C94470034
:100030000C9449000C9447000C9447000C94470022
:100040000C9447000C9447000C9447000C94470014
:100050000C94470011241FBECFE5D8E0DEBFCDBF12
:1000600010E0A0E6B0E0EAE2F9E002C005900D92EF
:10007000A837B107D9F710E0A8E7B0E001C01D929A
:10008000AB37B107E1F70E9464040C9493040C941D
:100090000000DF93CF93CDB7DEB781E08093780087
:1000A000ADE2B0E0EDE2F0E080818F778C93CF910C
:1000B000DF910895DF93CF9300D00F92CDB7DEB7D5
:1000C0009B838A831982EA81FB818681813009F0D2
:1000D0004DC1EA81FB818281813009F0A9C0ADE286
:1000E000B0E0EDE2F0E0808180618C93EA81FB81F9
:1000F0008081843008F099C0ADE2B0E0EDE2F0E03C
:100100008081982F9C7FEA81FB818081892B8C9351
:10011000EA81FB818181813041F4AEE2B0E0EEE220
:10012000F0E0808181608C9307C0AEE2B0E0EEE247
:10013000F0E080818E7F8C93EA81FB818781813022
:1001400041F4ADE2B0E0EDE2F0E0808180628C93BA
:1001500007C0ADE2B0E0EDE2F0E080818F7D8C93EE
:10016000EA81FB818381813069F4AFE5B0E0EFE59E
:10017000F0E0808180688C93EA81FB8183818093A9
:10018000790013C0AFE5B0E0EFE5F0E080818F7754
:100190008C93ADE2B0E0EDE2F0E080818F778C935C
:1001A000EA81FB81838180937900EA81FB818481EC
:1001B000813041F4ADE2B0E0EDE2F0E080818860B2
:1001C0008C9307C0ADE2B0E0EDE2F0E08081877F84
:1001D0008C93EA81FB818581813041F4ADE2B0E00E
:1001E000EDE2F0E0808184608C9307C0ADE2B0E086
:1001F000EDE2F0E080818B7F8C938CE061E00E94E7
:10020000A1028DE061E00E94A1028EE060E00E9408
:10021000A1028FE061E00E94A102ADE2B0E0EDE258
:10022000F0E0808180648C9399C081E0898396C0DE
:10023000EA81FB818281882309F08EC0ADE2B0E0C3
:10024000EDE2F0E080818F7E8C93AEE2B0E0EEE2F2
:10025000F0E080818E7F8C93ADE2B0E0EDE2F0E0E3
:1002600080818E7F8C93ADE2B0E0EDE2F0E08081A2
:100270008D7F8C938CE060E00E94A1028DE060E0B5
:100280000E94A1028EE061E00E94A1028FE060E086
:100290000E94A102EA81FB818781813041F4ADE2B5
:1002A000B0E0EDE2F0E0808180628C9307C0ADE2C7
:1002B000B0E0EDE2F0E080818F7D8C93EA81FB81FC
:1002C0008381813069F4AFE5B0E0EFE5F0E0808153
:1002D00080688C93EA81FB8183818093790013C0CD
:1002E000AFE5B0E0EFE5F0E080818F778C93ADE291
:1002F000B0E0EDE2F0E080818F778C93EA81FB81C2
:10030000838180937900EA81FB818481813041F48B
:10031000ADE2B0E0EDE2F0E0808188608C9307C050
:10032000ADE2B0E0EDE2F0E08081877F8C93EA817E
:10033000FB818581813041F4ADE2B0E0EDE2F0E097
:10034000808184608C930AC0ADE2B0E0EDE2F0E021
:1003500080818B7F8C9302C081E08983ADE2B0E025
:10036000EDE2F0E0808180648C9309C081E08983B4
:10037000ADE2B0E0EDE2F0E080818F7B8C9389818B
:100380000F900F900F90CF91DF910895DF93CF934F
:1003900000D0CDB7DEB78A8380917900882351F4ED
:1003A000EFE2F0E08A818083EEE2F0E08081882352
:1003B000DCF70EC080917900813051F48A818093FE
:1003C0007A00ADE2B0E0EDE2F0E0808180688C93ED
:1003D00089810F900F90CF91DF910895DF93CF9394
:1003E00000D00F92CDB7DEB79B838A8380917900CE
:1003F000882361F4EEE2F0E080818823DCF7EFE20D
:10040000F0E08081EA81FB8180830BC080917900DC
:10041000813039F4ADE2B0E0EDE2F0E08081806857
:100420008C9389810F900F900F90CF91DF91089559
:10043000DF93CF9300D000D0CDB7DEB79C838B8302
:1004400019820EC08981282F30E08B819C81FC01AC
:10045000E20FF31F80810E94C60189818F5F89832B
:100460008981282F30E08B819C81FC01E20FF31FF2
:100470008081882339F78A810F900F900F900F9019
:10048000CF91DF910895DF93CF9300D000D0CDB707
:10049000DEB79C838B8319828981282F30E08B8182
:1004A0009C81820F931F0E94EE010CC089818F5F97
:1004B00089838981282F30E08B819C81820F931F53
:1004C0000E94EE018981282F30E08B819C81FC0104
:1004D000E20FF31F8081833249F78981282F30E0B2
:1004E0008B819C81FC01E20FF31F10828A810F90A7
:1004F0000F900F900F90CF91DF910895DF93CF93DE
:1005000000D00F92CDB7DEB789836A8389818430AA
:1005100078F48981882F90E0880F991FFC01E859B1
:10052000FF4F0190F081E02D8A8180831B8202C001
:1005300081E08B838B810F900F900F90CF91DF9193
:100540000895DF93CF9300D000D00F92CDB7DEB7E0
:100550008B836C838B81803208F05EC08B818695A3
:10056000869586958A838B81877089838C8181307B
:1005700031F58A81882F90E0880F991FFC01E85996
:10058000FF4FA081B1818A81882F90E0880F991F49
:10059000FC01E859FF4F0190F081E02D8081482F48
:1005A0008981282F30E081E090E0022E02C0880F80
:1005B000991F0A94E2F7842B8C931D822FC08C81A3
:1005C000882339F58A81882F90E0880F991FFC01D4
:1005D000E859FF4FA081B1818A81882F90E0880F70
:1005E000991FFC01E859FF4F0190F081E02D8081B7
:1005F000482F8981282F30E081E090E0022E02C050
:10060000880F991F0A94E2F7809584238C931D82AA
:1006100005C081E08D8302C081E08D838D810F90C4
:100620000F900F900F900F90CF91DF910895DF936F
:10063000CF9300D000D0CDB7DEB789837B836A83A8
:100640008981843088F48981882F90E0880F991FF0
:10065000FC01E059FF4F0190F081E02D8081EA819B
:10066000FB8180831C8202C081E08C838C810F908F
:100670000F900F900F90CF91DF910895DF93CF935C
:1006800000D000D000D0CDB7DEB78B837D836C83E4
:100690008B81803290F58B818695869586958A83AD
:1006A0008B81877089838A81882F90E0880F991FBA
:1006B000FC01E059FF4F0190F081E02D8081482F2F
:1006C00050E08981282F30E081E090E002C0880F5F
:1006D000991F2A95E2F79A01282339238981882FC7
:1006E00090E0A90102C0559547958A95E2F7CA01A5
:1006F000EC81FD8180831E8202C051E05E838E8189
:1007000026960FB6F894DEBF0FBECDBFCF91DF9116
:100710000895DF93CF9300D00F92CDB7DEB78983D2
:100720006A838981843078F48981882F90E0880FEA
:10073000991FFC01E05AFF4F0190F081E02D8A8162
:1007400080831B8202C081E08B838B810F900F908E
:100750000F90CF91DF910895DF93CF9300D000D019
:100760000F92CDB7DEB78B836C838B81803208F01C
:100770005EC08B818695869586958A838B818770EE
:1007800089838C81813031F58A81882F90E0880FB0
:10079000991FFC01E05AFF4FA081B1818A81882F07
:1007A00090E0880F991FFC01E05AFF4F0190F08103
:1007B000E02D8081482F8981282F30E081E090E072
:1007C000022E02C0880F991F0A94E2F7842B8C93A3
:1007D0001D822FC08C81882339F58A81882F90E073
:1007E000880F991FFC01E05AFF4FA081B1818A81D7
:1007F000882F90E0880F991FFC01E05AFF4F01906D
:10080000F081E02D8081482F8981282F30E081E020
:1008100090E0022E02C0880F991F0A94E2F780959B
:1008200084238C931D8205C081E08D8302C081E00A
:100830008D838D810F900F900F900F900F90CF911F
:10084000DF910895DF93CF9300D000D0CDB7DEB70E
:100850008B838B81803270F58B818695869586950A
:100860008A838B81877089838A81882F90E0880FA3
:10087000991FFC01E05AFF4FA081B1818A81882F26
:1008800090E0880F991FFC01E05AFF4F0190F08122
:10089000E02D8081482F8981282F30E081E090E091
:1008A000022E02C0880F991F0A94E2F7842B8C93C2
:1008B0001C8202C081E08C838C810F900F900F907E
:1008C0000F90CF91DF910895DF93CF93CDB7DEB72F
:1008D00029970FB6F894DEBF0FBECDBF19861D82D3
:1008E0001F821E821A8281E088871C821B82CE01B1
:1008F00002960E945A0083E161E00E94A102CE01AB
:1009000001960E94EE018981813029F483E161E042
:100910000E94AC03F4CF8981882389F783E160E0EA
:0A0920000E94AC03ECCFF894FFCF67
:10092A003B003800350032003A003700340031000D
:08093A003900360033003000E3
:00000001FF
